:100000000C94340018950000189500001895000015
:10001000189500001895000018950000189500002C
:10002000189500001895000018950000189500001C
:10003000189500001895000018950000189500000C
:1000400018950000189500001895000018950000FC
:1000500018950000189500001895000018950000EC
:1000600018950000189500008FEF8DBFC8EDE0ECEB
:100070004E2E88E08EBFD8E0F8E05F2EA89584B7BA
:10008000082E877F84BF88E1992780936000909332
:100090006000EEEFF7E0A0E0B1E088278D933197A4
:1000A000E9F787E68093C40080E08093C50088E18B
:1000B0008093C100662487E880937A0080E480936F
:1000C0007C0070917A00706870937A0078948FEF5A
:1000D0008AB98FEF84B980E087B9569A559A81E042
:1000E00085BD81EA84BD409A3099FECF00917C00A5
:1000F000007F026000937C000E94C100082F192F2E
:10010000E0E1F0E0A8EAB8E00E94E6000E94920078
:100110000E949A0088EC90E00E94AD000C9476005A
:10012000F894FFCFA8EAB8E08D91882311F005D0AC
:10013000FBCF08958DE001D08AE00090C00005FE5D
:10014000FCCF8093C60008953197F1F70895689425
:1001500062F80895E89462F80895EF93FF93EE270C
:10016000E82BE92B31F0E0EAFFE03197F1F7019756
:10017000D1F7FF91EF910895019111912191308173
:10018000089570917A00706470937A0000907A00FC
:1001900006FCFCCF70917A00706470937A00009036
:1001A0007A0006FCFCCF8091780090917900089548
:1001B000000F111F221F331F0895009510952095E1
:1001C00030950F5F1F4F2F4F3F4F089501911081C2
:1001D0000FC00E94BC000EC00E94BC0010C0019164
:1001E000108117FF05C03FEF2FEF04C000811127DA
:1001F0002227332737FF03C0E0DF8DE28D93CF92B4
:10020000DF92EF92AA24BB24CC24DD24EE2440E22A
:10021000EAE0FF2755E093E38081890F87FD9F7017
:1002200083FD907F891B81935A95A9F7C1DFAA1C92
:10023000BB1CCC1CDD1CEE1C4A9551F7E894EFE08A
:10024000FF2782910CD0EB30E0F71EF068948A2DE6
:100250000AD088278D93EF90DF90CF900895982F44
:10026000829501D0892F8F70805D26F0803309F44C
:08027000089568948D93089530
:00000001FF
