:100000000C94340018950000189500001895000015
:10001000189500001895000018950000189500002C
:10002000189500001895000018950000189500001C
:10003000189500001895000018950000189500000C
:1000400018950000189500001895000018950000FC
:1000500018950000189500001895000018950000EC
:1000600018950000189500008FEF8DBFC8EDE0ECEB
:100070004E2E88E08EBFD8E0F8E05F2EA89584B7BA
:10008000082E877F84BF88E1992780936000909332
:100090006000EEEFF7E0A0E0B1E088278D933197A4
:1000A000E9F7662487E880937A0080E480937C00F7
:1000B00070917A00706870937A0078948FEF8AB9A3
:1000C0008FEF84B980E087B9569A559A81E085BD53
:1000D00081EA84BD409A30990C9471002D9A0C9459
:1000E00072002D980C946B00F894FFCF3197F1F7C4
:0E00F0000895689462F80895E89462F80895FF
:00000001FF
