:100000000C94340018950000189500001895000015
:10001000189500001895000018950000189500002C
:10002000189500001895000018950000189500001C
:10003000189500001895000018950000189500000C
:1000400018950000189500001895000018950000FC
:1000500018950000189500001895000018950000EC
:1000600018950000189500008FEF8DBFC8EDE0ECEB
:100070004E2E88E08EBFD8E0F8E05F2EA89584B7BA
:10008000082E877F84BF88E1992780936000909332
:100090006000EEEFF7E0A0E0B1E088278D933197A4
:1000A000E9F7662487E880937A0080E480937C00F7
:1000B00070917A00706870937A0078948FEF8AB9A3
:1000C0008FEF84B980E087B93898409A3998419A7F
:1000D0003A98429A3B98439A3C98449A3D98459A5C
:1000E000569A559A81E085BD81EA84BDA6E2B0E0CA
:1000F0000C9100FB81E00EF480E08F93A6E2B0E06B
:100100000C9101FB81E00EF080E09F918923882310
:1001100011F40C94940084E690E00E94E0002D9885
:100120002B9A2C980C94D300A6E2B0E00C9100FB23
:1001300081E00EF080E08F93A6E2B0E00C9101FB2D
:1001400081E00EF480E09F918923882311F40C94C0
:10015000B20084E690E00E94E0002B982C9A2D9843
:100160000C94D300A6E2B0E00C9101FB81E00EF408
:1001700080E08F93A6E2B0E00C9100FB81E00EF4EA
:1001800080E09F918923882311F40C94D00084E6A9
:1001900090E00E94E0002B982C982D9A0C94D300AC
:1001A0002B982C982D980C947600F894FFCF3197CB
:1001B000F1F70895689462F80895E89462F8089554
:1001C000EF93FF93EE27E82BE92B31F0E0EAFFE015
:0E01D0003197F1F70197D1F7FF91EF91089564
:00000001FF
