:100000000C94340018950000189500001895000015
:10001000189500001895000018950000189500002C
:10002000189500001895000018950000189500001C
:10003000189500001895000018950000189500000C
:1000400018950000189500001895000018950000FC
:1000500018950000189500001895000018950000EC
:1000600018950000189500008FEF8DBFC8EDE0ECEB
:100070004E2E88E08EBFD8E0F8E05F2EA89584B7BA
:10008000082E877F84BF88E1992780936000909332
:100090006000EEEFF7E0A0E0B1E088278D933197A4
:1000A000E9F780E18093C40080E08093C50088E197
:1000B0008093C10072E07093C000662487E880934B
:1000C0007A0080E480937C0070917A00706870936D
:1000D0007A0078948FEF8AB98FEF84B980E087B97E
:1000E0003898409A3998419A3A98429A3B98439A5C
:1000F0003C98449A3D98459A569A559A81E085BD18
:1001000081EA84BD2D9A84EF91E00E9499002D9898
:1001100084EF91E00E9499000C948200F894FFCF44
:100120003197F1F70895689462F80895E89462F8B9
:100130000895EF93FF93EE27E82BE92B31F0E0EAE7
:10014000FFE03197F1F70197D1F7FF91EF91089513
:00000001FF
