:100000000C94340018950000189500001895000015
:10001000189500001895000018950000189500002C
:10002000189500001895000018950000189500001C
:10003000189500001895000018950000189500000C
:1000400018950000189500001895000018950000FC
:1000500018950000189500001895000018950000EC
:1000600018950000189500008FEF8DBFC8E3ECE5F0
:100070004E2E88E08EBFD8E0F6E05F2EA89584B7BC
:10008000082E877F84BF88E1992780936000909332
:100090006000EEEFF7E0A0E0B1E088278D933197A4
:1000A000E9F780E18093C40080E08093C50088E197
:1000B0008093C10072E07093C000662487E880934B
:1000C0007A0080E480937C0070917A00706870936D
:1000D0007A0078948FEF8AB98FEF84B980E087B97E
:1000E0003898409A3998419A3A98429A3B98439A5C
:1000F0003C98449A3D98459A569A559A81E085BD18
:1001000081EA84BD00917C00007F00937C000E9406
:10011000E600082F192F043F51E0150710F00C944A
:1001200093000C9495000C94820080E0809304016D
:10013000009104010F3F18F011F00C94AF00A4E0FF
:10014000B1E08C9187BD8AE090E00E94D700A4E0E6
:10015000B1E08C918F5F8C9310F40C9498008FEF2A
:10016000809304014091040100E0041718F011F09D
:100170000C94CA00A4E0B1E08C9187BD8AE090E0C5
:100180000E94D7008091040181508093040110F0F7
:100190000C94B2000C949500F894FFCF3197F1F7CE
:1001A0000895689462F80895E89462F80895EF93CA
:1001B000FF93EE27E82BE92B31F0E0EAFFE03197DF
:1001C000F1F70197D1F7FF91EF91089570917A00BF
:1001D000706470937A0000907A0006FCFCCF7091F6
:1001E0007A00706470937A0000907A0006FCFCCF6D
:0A01F0008091780090917900089545
:00000001FF
